{
  "contractName": "DARKNFT",
  "abi": [
    {
      "inputs": [
        {
          "internalType": "string",
          "name": "baseURI",
          "type": "string"
        }
      ],
      "stateMutability": "nonpayable",
      "type": "constructor"
    },
    {
      "anonymous": false,
      "inputs": [
        {
          "indexed": true,
          "internalType": "address",
          "name": "owner",
          "type": "address"
        },
        {
          "indexed": true,
          "internalType": "address",
          "name": "approved",
          "type": "address"
        },
        {
          "indexed": true,
          "internalType": "uint256",
          "name": "tokenId",
          "type": "uint256"
        }
      ],
      "name": "Approval",
      "type": "event"
    },
    {
      "anonymous": false,
      "inputs": [
        {
          "indexed": true,
          "internalType": "address",
          "name": "owner",
          "type": "address"
        },
        {
          "indexed": true,
          "internalType": "address",
          "name": "operator",
          "type": "address"
        },
        {
          "indexed": false,
          "internalType": "bool",
          "name": "approved",
          "type": "bool"
        }
      ],
      "name": "ApprovalForAll",
      "type": "event"
    },
    {
      "anonymous": false,
      "inputs": [
        {
          "indexed": true,
          "internalType": "address",
          "name": "previousOwner",
          "type": "address"
        },
        {
          "indexed": true,
          "internalType": "address",
          "name": "newOwner",
          "type": "address"
        }
      ],
      "name": "OwnershipTransferred",
      "type": "event"
    },
    {
      "anonymous": false,
      "inputs": [
        {
          "indexed": true,
          "internalType": "address",
          "name": "from",
          "type": "address"
        },
        {
          "indexed": true,
          "internalType": "address",
          "name": "to",
          "type": "address"
        },
        {
          "indexed": true,
          "internalType": "uint256",
          "name": "tokenId",
          "type": "uint256"
        }
      ],
      "name": "Transfer",
      "type": "event"
    },
    {
      "inputs": [
        {
          "internalType": "address",
          "name": "to",
          "type": "address"
        },
        {
          "internalType": "uint256",
          "name": "tokenId",
          "type": "uint256"
        }
      ],
      "name": "approve",
      "outputs": [],
      "stateMutability": "nonpayable",
      "type": "function"
    },
    {
      "inputs": [
        {
          "internalType": "address",
          "name": "owner",
          "type": "address"
        }
      ],
      "name": "balanceOf",
      "outputs": [
        {
          "internalType": "uint256",
          "name": "",
          "type": "uint256"
        }
      ],
      "stateMutability": "view",
      "type": "function"
    },
    {
      "inputs": [
        {
          "internalType": "uint256",
          "name": "",
          "type": "uint256"
        }
      ],
      "name": "dark_tokens",
      "outputs": [
        {
          "internalType": "string",
          "name": "name",
          "type": "string"
        },
        {
          "internalType": "uint8",
          "name": "token_type",
          "type": "uint8"
        },
        {
          "internalType": "uint8",
          "name": "rarity",
          "type": "uint8"
        },
        {
          "internalType": "uint8",
          "name": "training",
          "type": "uint8"
        },
        {
          "internalType": "uint32",
          "name": "strength",
          "type": "uint32"
        },
        {
          "internalType": "uint32",
          "name": "defense",
          "type": "uint32"
        },
        {
          "internalType": "uint32",
          "name": "readyTime",
          "type": "uint32"
        }
      ],
      "stateMutability": "view",
      "type": "function"
    },
    {
      "inputs": [
        {
          "internalType": "uint256",
          "name": "tokenId",
          "type": "uint256"
        }
      ],
      "name": "getApproved",
      "outputs": [
        {
          "internalType": "address",
          "name": "",
          "type": "address"
        }
      ],
      "stateMutability": "view",
      "type": "function"
    },
    {
      "inputs": [
        {
          "internalType": "address",
          "name": "owner",
          "type": "address"
        },
        {
          "internalType": "address",
          "name": "operator",
          "type": "address"
        }
      ],
      "name": "isApprovedForAll",
      "outputs": [
        {
          "internalType": "bool",
          "name": "",
          "type": "bool"
        }
      ],
      "stateMutability": "view",
      "type": "function"
    },
    {
      "inputs": [],
      "name": "name",
      "outputs": [
        {
          "internalType": "string",
          "name": "",
          "type": "string"
        }
      ],
      "stateMutability": "view",
      "type": "function"
    },
    {
      "inputs": [],
      "name": "owner",
      "outputs": [
        {
          "internalType": "address",
          "name": "",
          "type": "address"
        }
      ],
      "stateMutability": "view",
      "type": "function"
    },
    {
      "inputs": [
        {
          "internalType": "uint256",
          "name": "tokenId",
          "type": "uint256"
        }
      ],
      "name": "ownerOf",
      "outputs": [
        {
          "internalType": "address",
          "name": "",
          "type": "address"
        }
      ],
      "stateMutability": "view",
      "type": "function"
    },
    {
      "inputs": [],
      "name": "renounceOwnership",
      "outputs": [],
      "stateMutability": "nonpayable",
      "type": "function"
    },
    {
      "inputs": [
        {
          "internalType": "address",
          "name": "from",
          "type": "address"
        },
        {
          "internalType": "address",
          "name": "to",
          "type": "address"
        },
        {
          "internalType": "uint256",
          "name": "tokenId",
          "type": "uint256"
        }
      ],
      "name": "safeTransferFrom",
      "outputs": [],
      "stateMutability": "nonpayable",
      "type": "function"
    },
    {
      "inputs": [
        {
          "internalType": "address",
          "name": "from",
          "type": "address"
        },
        {
          "internalType": "address",
          "name": "to",
          "type": "address"
        },
        {
          "internalType": "uint256",
          "name": "tokenId",
          "type": "uint256"
        },
        {
          "internalType": "bytes",
          "name": "_data",
          "type": "bytes"
        }
      ],
      "name": "safeTransferFrom",
      "outputs": [],
      "stateMutability": "nonpayable",
      "type": "function"
    },
    {
      "inputs": [
        {
          "internalType": "address",
          "name": "operator",
          "type": "address"
        },
        {
          "internalType": "bool",
          "name": "approved",
          "type": "bool"
        }
      ],
      "name": "setApprovalForAll",
      "outputs": [],
      "stateMutability": "nonpayable",
      "type": "function"
    },
    {
      "inputs": [
        {
          "internalType": "bytes4",
          "name": "interfaceId",
          "type": "bytes4"
        }
      ],
      "name": "supportsInterface",
      "outputs": [
        {
          "internalType": "bool",
          "name": "",
          "type": "bool"
        }
      ],
      "stateMutability": "view",
      "type": "function"
    },
    {
      "inputs": [],
      "name": "symbol",
      "outputs": [
        {
          "internalType": "string",
          "name": "",
          "type": "string"
        }
      ],
      "stateMutability": "view",
      "type": "function"
    },
    {
      "inputs": [
        {
          "internalType": "uint256",
          "name": "index",
          "type": "uint256"
        }
      ],
      "name": "tokenByIndex",
      "outputs": [
        {
          "internalType": "uint256",
          "name": "",
          "type": "uint256"
        }
      ],
      "stateMutability": "view",
      "type": "function"
    },
    {
      "inputs": [
        {
          "internalType": "address",
          "name": "owner",
          "type": "address"
        },
        {
          "internalType": "uint256",
          "name": "index",
          "type": "uint256"
        }
      ],
      "name": "tokenOfOwnerByIndex",
      "outputs": [
        {
          "internalType": "uint256",
          "name": "",
          "type": "uint256"
        }
      ],
      "stateMutability": "view",
      "type": "function"
    },
    {
      "inputs": [
        {
          "internalType": "uint256",
          "name": "tokenId",
          "type": "uint256"
        }
      ],
      "name": "tokenURI",
      "outputs": [
        {
          "internalType": "string",
          "name": "",
          "type": "string"
        }
      ],
      "stateMutability": "view",
      "type": "function"
    },
    {
      "inputs": [],
      "name": "totalSupply",
      "outputs": [
        {
          "internalType": "uint256",
          "name": "",
          "type": "uint256"
        }
      ],
      "stateMutability": "view",
      "type": "function"
    },
    {
      "inputs": [
        {
          "internalType": "address",
          "name": "from",
          "type": "address"
        },
        {
          "internalType": "address",
          "name": "to",
          "type": "address"
        },
        {
          "internalType": "uint256",
          "name": "tokenId",
          "type": "uint256"
        }
      ],
      "name": "transferFrom",
      "outputs": [],
      "stateMutability": "nonpayable",
      "type": "function"
    },
    {
      "inputs": [
        {
          "internalType": "address",
          "name": "newOwner",
          "type": "address"
        }
      ],
      "name": "transferOwnership",
      "outputs": [],
      "stateMutability": "nonpayable",
      "type": "function"
    },
    {
      "inputs": [],
      "name": "mint_pack_withBnb",
      "outputs": [],
      "stateMutability": "payable",
      "type": "function"
    },
    {
      "inputs": [],
      "name": "mint_pack_withToken",
      "outputs": [],
      "stateMutability": "nonpayable",
      "type": "function"
    },
    {
      "inputs": [],
      "name": "getBalance",
      "outputs": [
        {
          "internalType": "uint256",
          "name": "",
          "type": "uint256"
        }
      ],
      "stateMutability": "view",
      "type": "function"
    },
    {
      "inputs": [
        {
          "internalType": "uint256",
          "name": "tokenID_1",
          "type": "uint256"
        },
        {
          "internalType": "uint256",
          "name": "tokenID_2",
          "type": "uint256"
        }
      ],
      "name": "TrainingDARK",
      "outputs": [],
      "stateMutability": "payable",
      "type": "function"
    },
    {
      "inputs": [
        {
          "internalType": "uint256",
          "name": "tokenID",
          "type": "uint256"
        }
      ],
      "name": "getTokenData",
      "outputs": [
        {
          "internalType": "string",
          "name": "",
          "type": "string"
        },
        {
          "internalType": "uint8",
          "name": "",
          "type": "uint8"
        },
        {
          "internalType": "uint8",
          "name": "",
          "type": "uint8"
        },
        {
          "internalType": "uint8",
          "name": "",
          "type": "uint8"
        },
        {
          "internalType": "uint32",
          "name": "",
          "type": "uint32"
        },
        {
          "internalType": "uint32",
          "name": "",
          "type": "uint32"
        },
        {
          "internalType": "uint32",
          "name": "",
          "type": "uint32"
        }
      ],
      "stateMutability": "view",
      "type": "function"
    },
    {
      "inputs": [
        {
          "internalType": "string",
          "name": "baseURI",
          "type": "string"
        }
      ],
      "name": "setBaseURI",
      "outputs": [],
      "stateMutability": "nonpayable",
      "type": "function"
    },
    {
      "inputs": [
        {
          "internalType": "uint256",
          "name": "_pack_amount",
          "type": "uint256"
        }
      ],
      "name": "restart_pack",
      "outputs": [],
      "stateMutability": "nonpayable",
      "type": "function"
    },
    {
      "inputs": [],
      "name": "get_pack_info",
      "outputs": [
        {
          "internalType": "uint256",
          "name": "",
          "type": "uint256"
        },
        {
          "internalType": "uint256",
          "name": "",
          "type": "uint256"
        }
      ],
      "stateMutability": "view",
      "type": "function"
    },
    {
      "inputs": [
        {
          "internalType": "address payable",
          "name": "recipient",
          "type": "address"
        }
      ],
      "name": "withdrawNative",
      "outputs": [],
      "stateMutability": "nonpayable",
      "type": "function"
    },
    {
      "inputs": [],
      "name": "get_NativeAmount",
      "outputs": [
        {
          "internalType": "uint256",
          "name": "",
          "type": "uint256"
        }
      ],
      "stateMutability": "view",
      "type": "function"
    },
    {
      "inputs": [
        {
          "internalType": "address",
          "name": "darkso",
          "type": "address"
        }
      ],
      "name": "set_darkso_address",
      "outputs": [
        {
          "internalType": "bool",
          "name": "",
          "type": "bool"
        }
      ],
      "stateMutability": "nonpayable",
      "type": "function"
    },
    {
      "inputs": [
        {
          "internalType": "address",
          "name": "recipient",
          "type": "address"
        }
      ],
      "name": "withdrawToken",
      "outputs": [],
      "stateMutability": "nonpayable",
      "type": "function"
    }
  ],
  "bytecode": "0x6080604052614e20600d5567016345785d8a0000600f55637735940060105566b1a2bc2ec500006011553480156200003657600080fd5b506040516200704b3803806200704b83398181016040528101906200005c919062001271565b6040518060400160405280601181526020017f4865726f20616e64206469736369706c650000000000000000000000000000008152506040518060400160405280600481526020017f434f4f4c000000000000000000000000000000000000000000000000000000008152508160019080519060200190620000e09291906200110c565b508060029080519060200190620000f99291906200110c565b5050506200011c620001106200051560201b60201c565b6200051d60201b60201c565b6200012d81620005e360201b60201c565b60006040518060e001604052806040518060400160405280600381526020017f4e6f7800000000000000000000000000000000000000000000000000000000008152508152602001600160ff168152602001600360ff168152602001600460ff168152602001608c63ffffffff16815260200160b263ffffffff1681526020014263ffffffff1681525090806001815401808255809150506001900390600052602060002090600202016000909190919091506000820151816000019080519060200190620001fe9291906200110c565b5060208201518160010160006101000a81548160ff021916908360ff16021790555060408201518160010160016101000a81548160ff021916908360ff16021790555060608201518160010160026101000a81548160ff021916908360ff16021790555060808201518160010160036101000a81548163ffffffff021916908363ffffffff16021790555060a08201518160010160076101000a81548163ffffffff021916908363ffffffff16021790555060c082015181600101600b6101000a81548163ffffffff021916908363ffffffff160217905550505060006040518060e001604052806040518060400160405280600381526020017f4e6f7800000000000000000000000000000000000000000000000000000000008152508152602001600160ff168152602001600360ff168152602001600460ff168152602001608c63ffffffff16815260200160b163ffffffff1681526020014263ffffffff1681525090806001815401808255809150506001900390600052602060002090600202016000909190919091506000820151816000019080519060200190620003aa9291906200110c565b5060208201518160010160006101000a81548160ff021916908360ff16021790555060408201518160010160016101000a81548160ff021916908360ff16021790555060608201518160010160026101000a81548160ff021916908360ff16021790555060808201518160010160036101000a81548163ffffffff021916908363ffffffff16021790555060a08201518160010160076101000a81548163ffffffff021916908363ffffffff16021790555060c082015181600101600b6101000a81548163ffffffff021916908363ffffffff1602179055505050620004983360006200068e60201b60201c565b620004ab3360016200068e60201b60201c565b6002600e819055506000736407e501a017ecf9ea94232876cd08e7cff5a0ae905080601260006101000a81548173ffffffffffffffffffffffffffffffffffffffff021916908373ffffffffffffffffffffffffffffffffffffffff160217905550505062001867565b600033905090565b6000600b60009054906101000a900473ffffffffffffffffffffffffffffffffffffffff16905081600b60006101000a81548173ffffffffffffffffffffffffffffffffffffffff021916908373ffffffffffffffffffffffffffffffffffffffff1602179055508173ffffffffffffffffffffffffffffffffffffffff168173ffffffffffffffffffffffffffffffffffffffff167f8be0079c531659141344cd1fd0a4f28419497f9722a3daafe3b4186f6b6457e060405160405180910390a35050565b620005f36200051560201b60201c565b73ffffffffffffffffffffffffffffffffffffffff1662000619620006b460201b60201c565b73ffffffffffffffffffffffffffffffffffffffff161462000672576040517f08c379a000000000000000000000000000000000000000000000000000000000815260040162000669906200158b565b60405180910390fd5b80600c90805190602001906200068a9291906200110c565b5050565b620006b0828260405180602001604052806000815250620006de60201b60201c565b5050565b6000600b60009054906101000a900473ffffffffffffffffffffffffffffffffffffffff16905090565b620006f083836200074c60201b60201c565b6200070560008484846200093260201b60201c565b62000747576040517f08c379a00000000000000000000000000000000000000000000000000000000081526004016200073e9062001503565b60405180910390fd5b505050565b600073ffffffffffffffffffffffffffffffffffffffff168273ffffffffffffffffffffffffffffffffffffffff161415620007bf576040517f08c379a0000000000000000000000000000000000000000000000000000000008152600401620007b69062001569565b60405180910390fd5b620007d08162000aec60201b60201c565b1562000813576040517f08c379a00000000000000000000000000000000000000000000000000000000081526004016200080a9062001525565b60405180910390fd5b620008276000838362000b5860201b60201c565b6001600460008473ffffffffffffffffffffffffffffffffffffffff1673ffffffffffffffffffffffffffffffffffffffff168152602001908152602001600020600082825462000879919062001641565b92505081905550816003600083815260200190815260200160002060006101000a81548173ffffffffffffffffffffffffffffffffffffffff021916908373ffffffffffffffffffffffffffffffffffffffff160217905550808273ffffffffffffffffffffffffffffffffffffffff16600073ffffffffffffffffffffffffffffffffffffffff167fddf252ad1be2c89b69c2b068fc378daa952ba7f163c4a11628f55a4df523b3ef60405160405180910390a45050565b6000620009608473ffffffffffffffffffffffffffffffffffffffff1662000c9f60201b6200276a1760201c565b1562000adf578373ffffffffffffffffffffffffffffffffffffffff1663150b7a02620009926200051560201b60201c565b8786866040518563ffffffff1660e01b8152600401620009b69493929190620014af565b602060405180830381600087803b158015620009d157600080fd5b505af192505050801562000a0557506040513d601f19601f8201168201806040525081019062000a02919062001245565b60015b62000a8e573d806000811462000a38576040519150601f19603f3d011682016040523d82523d6000602084013e62000a3d565b606091505b5060008151141562000a86576040517f08c379a000000000000000000000000000000000000000000000000000000000815260040162000a7d9062001503565b60405180910390fd5b805181602001fd5b63150b7a0260e01b7bffffffffffffffffffffffffffffffffffffffffffffffffffffffff1916817bffffffffffffffffffffffffffffffffffffffffffffffffffffffff19161491505062000ae4565b600190505b949350505050565b60008073ffffffffffffffffffffffffffffffffffffffff166003600084815260200190815260200160002060009054906101000a900473ffffffffffffffffffffffffffffffffffffffff1673ffffffffffffffffffffffffffffffffffffffff1614159050919050565b62000b7083838362000cb260201b6200277d1760201c565b600073ffffffffffffffffffffffffffffffffffffffff168373ffffffffffffffffffffffffffffffffffffffff16141562000bbd5762000bb78162000cb760201b60201c565b62000c05565b8173ffffffffffffffffffffffffffffffffffffffff168373ffffffffffffffffffffffffffffffffffffffff161462000c045762000c03838262000d0060201b60201c565b5b5b600073ffffffffffffffffffffffffffffffffffffffff168273ffffffffffffffffffffffffffffffffffffffff16141562000c525762000c4c8162000e7d60201b60201c565b62000c9a565b8273ffffffffffffffffffffffffffffffffffffffff168273ffffffffffffffffffffffffffffffffffffffff161462000c995762000c98828262000fc560201b60201c565b5b5b505050565b600080823b905060008111915050919050565b505050565b600980549050600a600083815260200190815260200160002081905550600981908060018154018082558091505060019003906000526020600020016000909190919091505550565b6000600162000d1a846200105160201b620016a41760201c565b62000d2691906200169e565b905060006008600084815260200190815260200160002054905081811462000e0c576000600760008673ffffffffffffffffffffffffffffffffffffffff1673ffffffffffffffffffffffffffffffffffffffff168152602001908152602001600020600084815260200190815260200160002054905080600760008773ffffffffffffffffffffffffffffffffffffffff1673ffffffffffffffffffffffffffffffffffffffff168152602001908152602001600020600084815260200190815260200160002081905550816008600083815260200190815260200160002081905550505b6008600084815260200190815260200160002060009055600760008573ffffffffffffffffffffffffffffffffffffffff1673ffffffffffffffffffffffffffffffffffffffff16815260200190815260200160002060008381526020019081526020016000206000905550505050565b6000600160098054905062000e9391906200169e565b90506000600a600084815260200190815260200160002054905060006009838154811062000eea577f4e487b7100000000000000000000000000000000000000000000000000000000600052603260045260246000fd5b90600052602060002001549050806009838154811062000f33577f4e487b7100000000000000000000000000000000000000000000000000000000600052603260045260246000fd5b906000526020600020018190555081600a600083815260200190815260200160002081905550600a600085815260200190815260200160002060009055600980548062000fa9577f4e487b7100000000000000000000000000000000000000000000000000000000600052603160045260246000fd5b6001900381819060005260206000200160009055905550505050565b600062000fdd836200105160201b620016a41760201c565b905081600760008573ffffffffffffffffffffffffffffffffffffffff1673ffffffffffffffffffffffffffffffffffffffff168152602001908152602001600020600083815260200190815260200160002081905550806008600084815260200190815260200160002081905550505050565b60008073ffffffffffffffffffffffffffffffffffffffff168273ffffffffffffffffffffffffffffffffffffffff161415620010c5576040517f08c379a0000000000000000000000000000000000000000000000000000000008152600401620010bc9062001547565b60405180910390fd5b600460008373ffffffffffffffffffffffffffffffffffffffff1673ffffffffffffffffffffffffffffffffffffffff168152602001908152602001600020549050919050565b8280546200111a9062001779565b90600052602060002090601f0160209004810192826200113e57600085556200118a565b82601f106200115957805160ff19168380011785556200118a565b828001600101855582156200118a579182015b82811115620011895782518255916020019190600101906200116c565b5b5090506200119991906200119d565b5090565b5b80821115620011b85760008160009055506001016200119e565b5090565b6000620011d3620011cd84620015e1565b620015ad565b905082815260208101848484011115620011ec57600080fd5b620011f984828562001743565b509392505050565b60008151905062001212816200184d565b92915050565b600082601f8301126200122a57600080fd5b81516200123c848260208601620011bc565b91505092915050565b6000602082840312156200125857600080fd5b6000620012688482850162001201565b91505092915050565b6000602082840312156200128457600080fd5b600082015167ffffffffffffffff8111156200129f57600080fd5b620012ad8482850162001218565b91505092915050565b620012c181620016d9565b82525050565b6000620012d48262001614565b620012e081856200161f565b9350620012f281856020860162001743565b620012fd816200183c565b840191505092915050565b60006200131760328362001630565b91507f4552433732313a207472616e7366657220746f206e6f6e20455243373231526560008301527f63656976657220696d706c656d656e74657200000000000000000000000000006020830152604082019050919050565b60006200137f601c8362001630565b91507f4552433732313a20746f6b656e20616c7265616479206d696e746564000000006000830152602082019050919050565b6000620013c1602a8362001630565b91507f4552433732313a2062616c616e636520717565727920666f7220746865207a6560008301527f726f2061646472657373000000000000000000000000000000000000000000006020830152604082019050919050565b60006200142960208362001630565b91507f4552433732313a206d696e7420746f20746865207a65726f20616464726573736000830152602082019050919050565b60006200146b60208362001630565b91507f4f776e61626c653a2063616c6c6572206973206e6f7420746865206f776e65726000830152602082019050919050565b620014a98162001739565b82525050565b6000608082019050620014c66000830187620012b6565b620014d56020830186620012b6565b620014e460408301856200149e565b8181036060830152620014f88184620012c7565b905095945050505050565b600060208201905081810360008301526200151e8162001308565b9050919050565b60006020820190508181036000830152620015408162001370565b9050919050565b600060208201905081810360008301526200156281620013b2565b9050919050565b6000602082019050818103600083015262001584816200141a565b9050919050565b60006020820190508181036000830152620015a6816200145c565b9050919050565b6000604051905081810181811067ffffffffffffffff82111715620015d757620015d66200180d565b5b8060405250919050565b600067ffffffffffffffff821115620015ff57620015fe6200180d565b5b601f19601f8301169050602081019050919050565b600081519050919050565b600082825260208201905092915050565b600082825260208201905092915050565b60006200164e8262001739565b91506200165b8362001739565b9250827fffffffffffffffffffffffffffffffffffffffffffffffffffffffffffffffff03821115620016935762001692620017af565b5b828201905092915050565b6000620016ab8262001739565b9150620016b88362001739565b925082821015620016ce57620016cd620017af565b5b828203905092915050565b6000620016e68262001719565b9050919050565b60007fffffffff0000000000000000000000000000000000000000000000000000000082169050919050565b600073ffffffffffffffffffffffffffffffffffffffff82169050919050565b6000819050919050565b60005b838110156200176357808201518184015260208101905062001746565b8381111562001773576000848401525b50505050565b600060028204905060018216806200179257607f821691505b60208210811415620017a957620017a8620017de565b5b50919050565b7f4e487b7100000000000000000000000000000000000000000000000000000000600052601160045260246000fd5b7f4e487b7100000000000000000000000000000000000000000000000000000000600052602260045260246000fd5b7f4e487b7100000000000000000000000000000000000000000000000000000000600052604160045260246000fd5b6000601f19601f8301169050919050565b6200185881620016ed565b81146200186457600080fd5b50565b6157d480620018776000396000f3fe6080604052600436106101e35760003560e01c806370a0823111610102578063b88d4fde11610095578063d5a5926911610064578063d5a59269146106e0578063e985e9c51461070c578063ee392bb214610749578063f2fde38b14610786576101e3565b8063b88d4fde14610638578063bbfb38eb14610661578063bcb6505214610678578063c87b56dd146106a3576101e3565b806395d89b41116100d157806395d89b411461055e578063a22cb46514610589578063ab0034e6146105b2578063b09afec1146105f5576101e3565b806370a08231146104b6578063715018a6146104f3578063894760691461050a5780638da5cb5b14610533576101e3565b80632f622e6b1161017a5780634f6ccce7116101495780634f6ccce71461040957806355f804b31461044657806360344f051461046f5780636352211e14610479576101e3565b80632f622e6b146103515780632f745c591461037a57806342842e0e146103b7578063481a3a13146103e0576101e3565b8063095ea7b3116101b6578063095ea7b3146102a957806312065fe0146102d257806318160ddd146102fd57806323b872dd14610328576101e3565b806301ffc9a7146101e8578063021cf4921461022557806306fdde0314610241578063081812fc1461026c575b600080fd5b3480156101f457600080fd5b5061020f600480360381019061020a91906141af565b6107af565b60405161021c9190614e2f565b60405180910390f35b61023f600480360381019061023a9190614294565b610829565b005b34801561024d57600080fd5b50610256610e49565b6040516102639190614e4a565b60405180910390f35b34801561027857600080fd5b50610293600480360381019061028e9190614242565b610edb565b6040516102a09190614d68565b60405180910390f35b3480156102b557600080fd5b506102d060048036038101906102cb919061414a565b610f60565b005b3480156102de57600080fd5b506102e7611078565b6040516102f49190615282565b60405180910390f35b34801561030957600080fd5b5061031261112a565b60405161031f9190615282565b60405180910390f35b34801561033457600080fd5b5061034f600480360381019061034a9190614044565b611137565b005b34801561035d57600080fd5b5061037860048036038101906103739190613fdf565b611197565b005b34801561038657600080fd5b506103a1600480360381019061039c919061414a565b61125d565b6040516103ae9190615282565b60405180910390f35b3480156103c357600080fd5b506103de60048036038101906103d99190614044565b611302565b005b3480156103ec57600080fd5b5061040760048036038101906104029190614242565b611322565b005b34801561041557600080fd5b50610430600480360381019061042b9190614242565b6113b0565b60405161043d9190615282565b60405180910390f35b34801561045257600080fd5b5061046d60048036038101906104689190614201565b611447565b005b6104776114dd565b005b34801561048557600080fd5b506104a0600480360381019061049b9190614242565b6115f2565b6040516104ad9190614d68565b60405180910390f35b3480156104c257600080fd5b506104dd60048036038101906104d89190613fb6565b6116a4565b6040516104ea9190615282565b60405180910390f35b3480156104ff57600080fd5b5061050861175c565b005b34801561051657600080fd5b50610531600480360381019061052c9190613fb6565b6117e4565b005b34801561053f57600080fd5b50610548611aba565b6040516105559190614d68565b60405180910390f35b34801561056a57600080fd5b50610573611ae4565b6040516105809190614e4a565b60405180910390f35b34801561059557600080fd5b506105b060048036038101906105ab919061410e565b611b76565b005b3480156105be57600080fd5b506105d960048036038101906105d49190614242565b611cf7565b6040516105ec9796959493929190614e6c565b60405180910390f35b34801561060157600080fd5b5061061c60048036038101906106179190614242565b611e28565b60405161062f9796959493929190614e6c565b60405180910390f35b34801561064457600080fd5b5061065f600480360381019061065a9190614093565b612107565b005b34801561066d57600080fd5b50610676612169565b005b34801561068457600080fd5b5061068d6123da565b60405161069a9190615282565b60405180910390f35b3480156106af57600080fd5b506106ca60048036038101906106c59190614242565b61245e565b6040516106d79190614e4a565b60405180910390f35b3480156106ec57600080fd5b506106f5612505565b60405161070392919061529d565b60405180910390f35b34801561071857600080fd5b50610733600480360381019061072e9190614008565b612516565b6040516107409190614e2f565b60405180910390f35b34801561075557600080fd5b50610770600480360381019061076b9190613fb6565b6125aa565b60405161077d9190614e2f565b60405180910390f35b34801561079257600080fd5b506107ad60048036038101906107a89190613fb6565b612672565b005b60007f780e9d63000000000000000000000000000000000000000000000000000000007bffffffffffffffffffffffffffffffffffffffffffffffffffffffff1916827bffffffffffffffffffffffffffffffffffffffffffffffffffffffff19161480610822575061082182612782565b5b9050919050565b600073ffffffffffffffffffffffffffffffffffffffff163373ffffffffffffffffffffffffffffffffffffffff161415610899576040517f08c379a000000000000000000000000000000000000000000000000000000000815260040161089090615242565b60405180910390fd5b6011543410156108de576040517f08c379a00000000000000000000000000000000000000000000000000000000081526004016108d590615162565b60405180910390fd5b3373ffffffffffffffffffffffffffffffffffffffff166108fe836115f2565b73ffffffffffffffffffffffffffffffffffffffff1614610954576040517f08c379a000000000000000000000000000000000000000000000000000000000815260040161094b90614f82565b60405180910390fd5b3373ffffffffffffffffffffffffffffffffffffffff16610974826115f2565b73ffffffffffffffffffffffffffffffffffffffff16146109ca576040517f08c379a00000000000000000000000000000000000000000000000000000000081526004016109c190614f82565b60405180910390fd5b600160008381548110610a06577f4e487b7100000000000000000000000000000000000000000000000000000000600052603260045260246000fd5b906000526020600020906002020160010160029054906101000a900460ff1660ff161015610a69576040517f08c379a0000000000000000000000000000000000000000000000000000000008152600401610a6090614fa2565b60405180910390fd5b600160008281548110610aa5577f4e487b7100000000000000000000000000000000000000000000000000000000600052603260045260246000fd5b906000526020600020906002020160010160029054906101000a900460ff1660ff161015610b08576040517f08c379a0000000000000000000000000000000000000000000000000000000008152600401610aff90614fa2565b60405180910390fd5b4260008381548110610b43577f4e487b7100000000000000000000000000000000000000000000000000000000600052603260045260246000fd5b9060005260206000209060020201600101600b9054906101000a900463ffffffff1663ffffffff1610610bab576040517f08c379a0000000000000000000000000000000000000000000000000000000008152600401610ba2906150a2565b60405180910390fd5b4260008281548110610be6577f4e487b7100000000000000000000000000000000000000000000000000000000600052603260045260246000fd5b9060005260206000209060020201600101600b9054906101000a900463ffffffff1663ffffffff1610610c4e576040517f08c379a0000000000000000000000000000000000000000000000000000000008152600401610c45906150a2565b60405180910390fd5b6000610c5861112a565b905060011515610c686001612864565b151514610caa576040517f08c379a0000000000000000000000000000000000000000000000000000000008152600401610ca190615182565b60405180910390fd5b610cb43382612cb9565b600160008481548110610cf0577f4e487b7100000000000000000000000000000000000000000000000000000000600052603260045260246000fd5b906000526020600020906002020160010160029054906101000a900460ff16610d19919061548f565b60008481548110610d53577f4e487b7100000000000000000000000000000000000000000000000000000000600052603260045260246000fd5b906000526020600020906002020160010160026101000a81548160ff021916908360ff160217905550600160008381548110610db8577f4e487b7100000000000000000000000000000000000000000000000000000000600052603260045260246000fd5b906000526020600020906002020160010160029054906101000a900460ff16610de1919061548f565b60008381548110610e1b577f4e487b7100000000000000000000000000000000000000000000000000000000600052603260045260246000fd5b906000526020600020906002020160010160026101000a81548160ff021916908360ff160217905550505050565b606060018054610e58906155a8565b80601f0160208091040260200160405190810160405280929190818152602001828054610e84906155a8565b8015610ed15780601f10610ea657610100808354040283529160200191610ed1565b820191906000526020600020905b815481529060010190602001808311610eb457829003601f168201915b5050505050905090565b6000610ee682612cd7565b610f25576040517f08c379a0000000000000000000000000000000000000000000000000000000008152600401610f1c906150e2565b60405180910390fd5b6005600083815260200190815260200160002060009054906101000a900473ffffffffffffffffffffffffffffffffffffffff169050919050565b6000610f6b826115f2565b90508073ffffffffffffffffffffffffffffffffffffffff168373ffffffffffffffffffffffffffffffffffffffff161415610fdc576040517f08c379a0000000000000000000000000000000000000000000000000000000008152600401610fd3906151c2565b60405180910390fd5b8073ffffffffffffffffffffffffffffffffffffffff16610ffb612d43565b73ffffffffffffffffffffffffffffffffffffffff16148061102a575061102981611024612d43565b612516565b5b611069576040517f08c379a000000000000000000000000000000000000000000000000000000000815260040161106090615042565b60405180910390fd5b6110738383612d4b565b505050565b6000601260009054906101000a900473ffffffffffffffffffffffffffffffffffffffff1673ffffffffffffffffffffffffffffffffffffffff166370a08231336040518263ffffffff1660e01b81526004016110d59190614d68565b60206040518083038186803b1580156110ed57600080fd5b505afa158015611101573d6000803e3d6000fd5b505050506040513d601f19601f82011682018060405250810190611125919061426b565b905090565b6000600980549050905090565b611148611142612d43565b82612e04565b611187576040517f08c379a000000000000000000000000000000000000000000000000000000000815260040161117e906151e2565b60405180910390fd5b611192838383612ee2565b505050565b61119f612d43565b73ffffffffffffffffffffffffffffffffffffffff166111bd611aba565b73ffffffffffffffffffffffffffffffffffffffff1614611213576040517f08c379a000000000000000000000000000000000000000000000000000000000815260040161120a90615102565b60405180910390fd5b8073ffffffffffffffffffffffffffffffffffffffff166108fc479081150290604051600060405180830381858888f19350505050158015611259573d6000803e3d6000fd5b5050565b6000611268836116a4565b82106112a9576040517f08c379a00000000000000000000000000000000000000000000000000000000081526004016112a090614ee2565b60405180910390fd5b600760008473ffffffffffffffffffffffffffffffffffffffff1673ffffffffffffffffffffffffffffffffffffffff168152602001908152602001600020600083815260200190815260200160002054905092915050565b61131d83838360405180602001604052806000815250612107565b505050565b61132a612d43565b73ffffffffffffffffffffffffffffffffffffffff16611348611aba565b73ffffffffffffffffffffffffffffffffffffffff161461139e576040517f08c379a000000000000000000000000000000000000000000000000000000000815260040161139590615102565b60405180910390fd5b80600d819055506000600e8190555050565b60006113ba61112a565b82106113fb576040517f08c379a00000000000000000000000000000000000000000000000000000000081526004016113f290615222565b60405180910390fd5b60098281548110611435577f4e487b7100000000000000000000000000000000000000000000000000000000600052603260045260246000fd5b90600052602060002001549050919050565b61144f612d43565b73ffffffffffffffffffffffffffffffffffffffff1661146d611aba565b73ffffffffffffffffffffffffffffffffffffffff16146114c3576040517f08c379a00000000000000000000000000000000000000000000000000000000081526004016114ba90615102565b60405180910390fd5b80600c90805190602001906114d9929190613d9b565b5050565b600d546001600e546114ef919061539a565b1061152f576040517f08c379a000000000000000000000000000000000000000000000000000000000815260040161152690615262565b60405180910390fd5b600f54341015611574576040517f08c379a000000000000000000000000000000000000000000000000000000000815260040161156b90615202565b60405180910390fd5b600061157e61112a565b90506001151561158e6000612864565b1515146115d0576040517f08c379a00000000000000000000000000000000000000000000000000000000081526004016115c790615182565b60405180910390fd5b6115da3382612cb9565b6001600e546115e9919061539a565b600e8190555050565b6000806003600084815260200190815260200160002060009054906101000a900473ffffffffffffffffffffffffffffffffffffffff169050600073ffffffffffffffffffffffffffffffffffffffff168173ffffffffffffffffffffffffffffffffffffffff16141561169b576040517f08c379a000000000000000000000000000000000000000000000000000000000815260040161169290615082565b60405180910390fd5b80915050919050565b60008073ffffffffffffffffffffffffffffffffffffffff168273ffffffffffffffffffffffffffffffffffffffff161415611715576040517f08c379a000000000000000000000000000000000000000000000000000000000815260040161170c90615062565b60405180910390fd5b600460008373ffffffffffffffffffffffffffffffffffffffff1673ffffffffffffffffffffffffffffffffffffffff168152602001908152602001600020549050919050565b611764612d43565b73ffffffffffffffffffffffffffffffffffffffff16611782611aba565b73ffffffffffffffffffffffffffffffffffffffff16146117d8576040517f08c379a00000000000000000000000000000000000000000000000000000000081526004016117cf90615102565b60405180910390fd5b6117e2600061313e565b565b6117ec612d43565b73ffffffffffffffffffffffffffffffffffffffff1661180a611aba565b73ffffffffffffffffffffffffffffffffffffffff1614611860576040517f08c379a000000000000000000000000000000000000000000000000000000000815260040161185790615102565b60405180910390fd5b6000601260009054906101000a900473ffffffffffffffffffffffffffffffffffffffff1673ffffffffffffffffffffffffffffffffffffffff166370a08231306040518263ffffffff1660e01b81526004016118bd9190614d68565b60206040518083038186803b1580156118d557600080fd5b505afa1580156118e9573d6000803e3d6000fd5b505050506040513d601f19601f8201168201806040525081019061190d919061426b565b905060011515601260009054906101000a900473ffffffffffffffffffffffffffffffffffffffff1673ffffffffffffffffffffffffffffffffffffffff1663095ea7b384846040518363ffffffff1660e01b8152600401611970929190614e06565b602060405180830381600087803b15801561198a57600080fd5b505af115801561199e573d6000803e3d6000fd5b505050506040513d601f19601f820116820180604052508101906119c29190614186565b151514611a04576040517f08c379a00000000000000000000000000000000000000000000000000000000081526004016119fb90614f42565b60405180910390fd5b601260009054906101000a900473ffffffffffffffffffffffffffffffffffffffff1673ffffffffffffffffffffffffffffffffffffffff166323b872dd3084846040518463ffffffff1660e01b8152600401611a6393929190614d83565b602060405180830381600087803b158015611a7d57600080fd5b505af1158015611a91573d6000803e3d6000fd5b505050506040513d601f19601f82011682018060405250810190611ab59190614186565b505050565b6000600b60009054906101000a900473ffffffffffffffffffffffffffffffffffffffff16905090565b606060028054611af3906155a8565b80601f0160208091040260200160405190810160405280929190818152602001828054611b1f906155a8565b8015611b6c5780601f10611b4157610100808354040283529160200191611b6c565b820191906000526020600020905b815481529060010190602001808311611b4f57829003601f168201915b5050505050905090565b611b7e612d43565b73ffffffffffffffffffffffffffffffffffffffff168273ffffffffffffffffffffffffffffffffffffffff161415611bec576040517f08c379a0000000000000000000000000000000000000000000000000000000008152600401611be390615002565b60405180910390fd5b8060066000611bf9612d43565b73ffffffffffffffffffffffffffffffffffffffff1673ffffffffffffffffffffffffffffffffffffffff16815260200190815260200160002060008473ffffffffffffffffffffffffffffffffffffffff1673ffffffffffffffffffffffffffffffffffffffff16815260200190815260200160002060006101000a81548160ff0219169083151502179055508173ffffffffffffffffffffffffffffffffffffffff16611ca6612d43565b73ffffffffffffffffffffffffffffffffffffffff167f17307eab39ab6107e8899845ad3d59bd9653f200f220920489ca2b5937696c3183604051611ceb9190614e2f565b60405180910390a35050565b60008181548110611d0757600080fd5b9060005260206000209060020201600091509050806000018054611d2a906155a8565b80601f0160208091040260200160405190810160405280929190818152602001828054611d56906155a8565b8015611da35780601f10611d7857610100808354040283529160200191611da3565b820191906000526020600020905b815481529060010190602001808311611d8657829003601f168201915b5050505050908060010160009054906101000a900460ff16908060010160019054906101000a900460ff16908060010160029054906101000a900460ff16908060010160039054906101000a900463ffffffff16908060010160079054906101000a900463ffffffff169080600101600b9054906101000a900463ffffffff16905087565b6060600080600080600080600073ffffffffffffffffffffffffffffffffffffffff163373ffffffffffffffffffffffffffffffffffffffff161415611ea3576040517f08c379a0000000000000000000000000000000000000000000000000000000008152600401611e9a90615242565b60405180910390fd5b3373ffffffffffffffffffffffffffffffffffffffff16611ec3896115f2565b73ffffffffffffffffffffffffffffffffffffffff1614611f19576040517f08c379a0000000000000000000000000000000000000000000000000000000008152600401611f1090614f82565b60405180910390fd5b6000808981548110611f54577f4e487b7100000000000000000000000000000000000000000000000000000000600052603260045260246000fd5b90600052602060002090600202016040518060e0016040529081600082018054611f7d906155a8565b80601f0160208091040260200160405190810160405280929190818152602001828054611fa9906155a8565b8015611ff65780601f10611fcb57610100808354040283529160200191611ff6565b820191906000526020600020905b815481529060010190602001808311611fd957829003601f168201915b505050505081526020016001820160009054906101000a900460ff1660ff1660ff1681526020016001820160019054906101000a900460ff1660ff1660ff1681526020016001820160029054906101000a900460ff1660ff1660ff1681526020016001820160039054906101000a900463ffffffff1663ffffffff1663ffffffff1681526020016001820160079054906101000a900463ffffffff1663ffffffff1663ffffffff16815260200160018201600b9054906101000a900463ffffffff1663ffffffff1663ffffffff16815250509050806000015181602001518260400151836060015184608001518560a001518660c00151975097509750975097509750975050919395979092949650565b612118612112612d43565b83612e04565b612157576040517f08c379a000000000000000000000000000000000000000000000000000000000815260040161214e906151e2565b60405180910390fd5b61216384848484613204565b50505050565b600d546001600e5461217b919061539a565b106121bb576040517f08c379a00000000000000000000000000000000000000000000000000000000081526004016121b2906151a2565b60405180910390fd5b601054601260009054906101000a900473ffffffffffffffffffffffffffffffffffffffff1673ffffffffffffffffffffffffffffffffffffffff166370a08231336040518263ffffffff1660e01b81526004016122199190614d68565b60206040518083038186803b15801561223157600080fd5b505afa158015612245573d6000803e3d6000fd5b505050506040513d601f19601f82011682018060405250810190612269919061426b565b10156122aa576040517f08c379a00000000000000000000000000000000000000000000000000000000081526004016122a190614fc2565b60405180910390fd5b601260009054906101000a900473ffffffffffffffffffffffffffffffffffffffff1673ffffffffffffffffffffffffffffffffffffffff1663a9059cbb306010546040518363ffffffff1660e01b8152600401612309929190614e06565b602060405180830381600087803b15801561232357600080fd5b505af1158015612337573d6000803e3d6000fd5b505050506040513d601f19601f8201168201806040525081019061235b9190614186565b50600061236661112a565b9050600115156123766000612864565b1515146123b8576040517f08c379a00000000000000000000000000000000000000000000000000000000081526004016123af90615182565b60405180910390fd5b6123c23382612cb9565b6001600e546123d1919061539a565b600e8190555050565b60006123e4612d43565b73ffffffffffffffffffffffffffffffffffffffff16612402611aba565b73ffffffffffffffffffffffffffffffffffffffff1614612458576040517f08c379a000000000000000000000000000000000000000000000000000000000815260040161244f90615102565b60405180910390fd5b47905090565b606061246982612cd7565b6124a8576040517f08c379a000000000000000000000000000000000000000000000000000000000815260040161249f90615142565b60405180910390fd5b60006124b2613260565b905060008151116124d257604051806020016040528060008152506124fd565b806124dc846132f2565b6040516020016124ed929190614d29565b6040516020818303038152906040525b915050919050565b600080600d54600e54915091509091565b6000600660008473ffffffffffffffffffffffffffffffffffffffff1673ffffffffffffffffffffffffffffffffffffffff16815260200190815260200160002060008373ffffffffffffffffffffffffffffffffffffffff1673ffffffffffffffffffffffffffffffffffffffff16815260200190815260200160002060009054906101000a900460ff16905092915050565b60006125b4612d43565b73ffffffffffffffffffffffffffffffffffffffff166125d2611aba565b73ffffffffffffffffffffffffffffffffffffffff1614612628576040517f08c379a000000000000000000000000000000000000000000000000000000000815260040161261f90615102565b60405180910390fd5b81601260006101000a81548173ffffffffffffffffffffffffffffffffffffffff021916908373ffffffffffffffffffffffffffffffffffffffff16021790555060019050919050565b61267a612d43565b73ffffffffffffffffffffffffffffffffffffffff16612698611aba565b73ffffffffffffffffffffffffffffffffffffffff16146126ee576040517f08c379a00000000000000000000000000000000000000000000000000000000081526004016126e590615102565b60405180910390fd5b600073ffffffffffffffffffffffffffffffffffffffff168173ffffffffffffffffffffffffffffffffffffffff16141561275e576040517f08c379a000000000000000000000000000000000000000000000000000000000815260040161275590614f22565b60405180910390fd5b6127678161313e565b50565b600080823b905060008111915050919050565b505050565b60007f80ac58cd000000000000000000000000000000000000000000000000000000007bffffffffffffffffffffffffffffffffffffffffffffffffffffffff1916827bffffffffffffffffffffffffffffffffffffffffffffffffffffffff1916148061284d57507f5b5e139f000000000000000000000000000000000000000000000000000000007bffffffffffffffffffffffffffffffffffffffffffffffffffffffff1916827bffffffffffffffffffffffffffffffffffffffffffffffffffffffff1916145b8061285d575061285c8261349f565b5b9050919050565b6000806128716064613509565b9050600080600080600060606000604b905060008a1561289657620151809050605091505b6128a06002613509565b9450818960ff1610612a6557605f8960ff161015612947576002935060018560ff161415612905576040518060400160405280600581526020017f5361726168000000000000000000000000000000000000000000000000000000815250925061293e565b6040518060400160405280600681526020017f4b61796c616e000000000000000000000000000000000000000000000000000081525092505b600297506129d2565b6003935060018560ff161415612994576040518060400160405280600881526020017f56616c6b7972696100000000000000000000000000000000000000000000000081525092506129cd565b6040518060400160405280600381526020017f4e6f78000000000000000000000000000000000000000000000000000000000081525092505b600497505b6001985060028460ff161415612a23576129ec6015613509565b60ff1696506064876129fe91906153f0565b9650612a0a6015613509565b60ff169550606486612a1c91906153f0565b9550612a60565b612a2d6029613509565b60ff169650608c87612a3f91906153f0565b9650612a4b6029613509565b60ff169550608c86612a5d91906153f0565b95505b612b2c565b600298506001935060018560ff161415612ab6576040518060400160405280600681526020017f4175726f726100000000000000000000000000000000000000000000000000008152509250612aef565b6040518060400160405280600481526020017f426572740000000000000000000000000000000000000000000000000000000081525092505b612af96015613509565b60ff169650605087612b0b91906153f0565b9650612b176015613509565b60ff169550605086612b2991906153f0565b95505b60006040518060e001604052808581526020018b60ff1681526020018660ff1681526020018a60ff1681526020018963ffffffff1681526020018863ffffffff1681526020018342612b7e919061539a565b63ffffffff1681525090806001815401808255809150506001900390600052602060002090600202016000909190919091506000820151816000019080519060200190612bcc929190613d9b565b5060208201518160010160006101000a81548160ff021916908360ff16021790555060408201518160010160016101000a81548160ff021916908360ff16021790555060608201518160010160026101000a81548160ff021916908360ff16021790555060808201518160010160036101000a81548163ffffffff021916908363ffffffff16021790555060a08201518160010160076101000a81548163ffffffff021916908363ffffffff16021790555060c082015181600101600b6101000a81548163ffffffff021916908363ffffffff160217905550505060019950505050505050505050919050565b612cd382826040518060200160405280600081525061354f565b5050565b60008073ffffffffffffffffffffffffffffffffffffffff166003600084815260200190815260200160002060009054906101000a900473ffffffffffffffffffffffffffffffffffffffff1673ffffffffffffffffffffffffffffffffffffffff1614159050919050565b600033905090565b816005600083815260200190815260200160002060006101000a81548173ffffffffffffffffffffffffffffffffffffffff021916908373ffffffffffffffffffffffffffffffffffffffff160217905550808273ffffffffffffffffffffffffffffffffffffffff16612dbe836115f2565b73ffffffffffffffffffffffffffffffffffffffff167f8c5be1e5ebec7d5bd14f71427d1e84f3dd0314c0f7b2291e5b200ac8c7c3b92560405160405180910390a45050565b6000612e0f82612cd7565b612e4e576040517f08c379a0000000000000000000000000000000000000000000000000000000008152600401612e4590615022565b60405180910390fd5b6000612e59836115f2565b90508073ffffffffffffffffffffffffffffffffffffffff168473ffffffffffffffffffffffffffffffffffffffff161480612ec857508373ffffffffffffffffffffffffffffffffffffffff16612eb084610edb565b73ffffffffffffffffffffffffffffffffffffffff16145b80612ed95750612ed88185612516565b5b91505092915050565b8273ffffffffffffffffffffffffffffffffffffffff16612f02826115f2565b73ffffffffffffffffffffffffffffffffffffffff1614612f58576040517f08c379a0000000000000000000000000000000000000000000000000000000008152600401612f4f90615122565b60405180910390fd5b600073ffffffffffffffffffffffffffffffffffffffff168273ffffffffffffffffffffffffffffffffffffffff161415612fc8576040517f08c379a0000000000000000000000000000000000000000000000000000000008152600401612fbf90614fe2565b60405180910390fd5b612fd38383836135aa565b612fde600082612d4b565b6001600460008573ffffffffffffffffffffffffffffffffffffffff1673ffffffffffffffffffffffffffffffffffffffff168152602001908152602001600020600082825461302e919061545b565b925050819055506001600460008473ffffffffffffffffffffffffffffffffffffffff1673ffffffffffffffffffffffffffffffffffffffff1681526020019081526020016000206000828254613085919061539a565b92505081905550816003600083815260200190815260200160002060006101000a81548173ffffffffffffffffffffffffffffffffffffffff021916908373ffffffffffffffffffffffffffffffffffffffff160217905550808273ffffffffffffffffffffffffffffffffffffffff168473ffffffffffffffffffffffffffffffffffffffff167fddf252ad1be2c89b69c2b068fc378daa952ba7f163c4a11628f55a4df523b3ef60405160405180910390a4505050565b6000600b60009054906101000a900473ffffffffffffffffffffffffffffffffffffffff16905081600b60006101000a81548173ffffffffffffffffffffffffffffffffffffffff021916908373ffffffffffffffffffffffffffffffffffffffff1602179055508173ffffffffffffffffffffffffffffffffffffffff168173ffffffffffffffffffffffffffffffffffffffff167f8be0079c531659141344cd1fd0a4f28419497f9722a3daafe3b4186f6b6457e060405160405180910390a35050565b61320f848484612ee2565b61321b848484846136be565b61325a576040517f08c379a000000000000000000000000000000000000000000000000000000000815260040161325190614f02565b60405180910390fd5b50505050565b6060600c805461326f906155a8565b80601f016020809104026020016040519081016040528092919081815260200182805461329b906155a8565b80156132e85780601f106132bd576101008083540402835291602001916132e8565b820191906000526020600020905b8154815290600101906020018083116132cb57829003601f168201915b5050505050905090565b6060600082141561333a576040518060400160405280600181526020017f3000000000000000000000000000000000000000000000000000000000000000815250905061349a565b600082905060005b6000821461336c578080613355906155da565b915050600a82613365919061542a565b9150613342565b60008167ffffffffffffffff8111156133ae577f4e487b7100000000000000000000000000000000000000000000000000000000600052604160045260246000fd5b6040519080825280601f01601f1916602001820160405280156133e05781602001600182028036833780820191505090505b5090505b60008514613493576001826133f9919061545b565b9150600a85613408919061562d565b6030613414919061539a565b60f81b818381518110613450577f4e487b7100000000000000000000000000000000000000000000000000000000600052603260045260246000fd5b60200101907effffffffffffffffffffffffffffffffffffffffffffffffffffffffffffff1916908160001a905350600a8561348c919061542a565b94506133e4565b8093505050505b919050565b60007f01ffc9a7000000000000000000000000000000000000000000000000000000007bffffffffffffffffffffffffffffffffffffffffffffffffffffffff1916827bffffffffffffffffffffffffffffffffffffffffffffffffffffffff1916149050919050565b6000804260405160200161351d9190614d4d565b6040516020818303038152906040528051906020012060001c90508260ff1681613547919061562d565b915050919050565b6135598383613855565b61356660008484846136be565b6135a5576040517f08c379a000000000000000000000000000000000000000000000000000000000815260040161359c90614f02565b60405180910390fd5b505050565b6135b583838361277d565b600073ffffffffffffffffffffffffffffffffffffffff168373ffffffffffffffffffffffffffffffffffffffff1614156135f8576135f381613a23565b613637565b8173ffffffffffffffffffffffffffffffffffffffff168373ffffffffffffffffffffffffffffffffffffffff1614613636576136358382613a6c565b5b5b600073ffffffffffffffffffffffffffffffffffffffff168273ffffffffffffffffffffffffffffffffffffffff16141561367a5761367581613bd9565b6136b9565b8273ffffffffffffffffffffffffffffffffffffffff168273ffffffffffffffffffffffffffffffffffffffff16146136b8576136b78282613d1c565b5b5b505050565b60006136df8473ffffffffffffffffffffffffffffffffffffffff1661276a565b15613848578373ffffffffffffffffffffffffffffffffffffffff1663150b7a02613708612d43565b8786866040518563ffffffff1660e01b815260040161372a9493929190614dba565b602060405180830381600087803b15801561374457600080fd5b505af192505050801561377557506040513d601f19601f8201168201806040525081019061377291906141d8565b60015b6137f8573d80600081146137a5576040519150601f19603f3d011682016040523d82523d6000602084013e6137aa565b606091505b506000815114156137f0576040517f08c379a00000000000000000000000000000000000000000000000000000000081526004016137e790614f02565b60405180910390fd5b805181602001fd5b63150b7a0260e01b7bffffffffffffffffffffffffffffffffffffffffffffffffffffffff1916817bffffffffffffffffffffffffffffffffffffffffffffffffffffffff19161491505061384d565b600190505b949350505050565b600073ffffffffffffffffffffffffffffffffffffffff168273ffffffffffffffffffffffffffffffffffffffff1614156138c5576040517f08c379a00000000000000000000000000000000000000000000000000000000081526004016138bc906150c2565b60405180910390fd5b6138ce81612cd7565b1561390e576040517f08c379a000000000000000000000000000000000000000000000000000000000815260040161390590614f62565b60405180910390fd5b61391a600083836135aa565b6001600460008473ffffffffffffffffffffffffffffffffffffffff1673ffffffffffffffffffffffffffffffffffffffff168152602001908152602001600020600082825461396a919061539a565b92505081905550816003600083815260200190815260200160002060006101000a81548173ffffffffffffffffffffffffffffffffffffffff021916908373ffffffffffffffffffffffffffffffffffffffff160217905550808273ffffffffffffffffffffffffffffffffffffffff16600073ffffffffffffffffffffffffffffffffffffffff167fddf252ad1be2c89b69c2b068fc378daa952ba7f163c4a11628f55a4df523b3ef60405160405180910390a45050565b600980549050600a600083815260200190815260200160002081905550600981908060018154018082558091505060019003906000526020600020016000909190919091505550565b60006001613a79846116a4565b613a83919061545b565b9050600060086000848152602001908152602001600020549050818114613b68576000600760008673ffffffffffffffffffffffffffffffffffffffff1673ffffffffffffffffffffffffffffffffffffffff168152602001908152602001600020600084815260200190815260200160002054905080600760008773ffffffffffffffffffffffffffffffffffffffff1673ffffffffffffffffffffffffffffffffffffffff168152602001908152602001600020600084815260200190815260200160002081905550816008600083815260200190815260200160002081905550505b6008600084815260200190815260200160002060009055600760008573ffffffffffffffffffffffffffffffffffffffff1673ffffffffffffffffffffffffffffffffffffffff16815260200190815260200160002060008381526020019081526020016000206000905550505050565b60006001600980549050613bed919061545b565b90506000600a6000848152602001908152602001600020549050600060098381548110613c43577f4e487b7100000000000000000000000000000000000000000000000000000000600052603260045260246000fd5b906000526020600020015490508060098381548110613c8b577f4e487b7100000000000000000000000000000000000000000000000000000000600052603260045260246000fd5b906000526020600020018190555081600a600083815260200190815260200160002081905550600a6000858152602001908152602001600020600090556009805480613d00577f4e487b7100000000000000000000000000000000000000000000000000000000600052603160045260246000fd5b6001900381819060005260206000200160009055905550505050565b6000613d27836116a4565b905081600760008573ffffffffffffffffffffffffffffffffffffffff1673ffffffffffffffffffffffffffffffffffffffff168152602001908152602001600020600083815260200190815260200160002081905550806008600084815260200190815260200160002081905550505050565b828054613da7906155a8565b90600052602060002090601f016020900481019282613dc95760008555613e10565b82601f10613de257805160ff1916838001178555613e10565b82800160010185558215613e10579182015b82811115613e0f578251825591602001919060010190613df4565b5b509050613e1d9190613e21565b5090565b5b80821115613e3a576000816000905550600101613e22565b5090565b6000613e51613e4c846152f7565b6152c6565b905082815260208101848484011115613e6957600080fd5b613e74848285615566565b509392505050565b6000613e8f613e8a84615327565b6152c6565b905082815260208101848484011115613ea757600080fd5b613eb2848285615566565b509392505050565b600081359050613ec98161572b565b92915050565b600081359050613ede81615742565b92915050565b600081359050613ef381615759565b92915050565b600081519050613f0881615759565b92915050565b600081359050613f1d81615770565b92915050565b600081519050613f3281615770565b92915050565b600082601f830112613f4957600080fd5b8135613f59848260208601613e3e565b91505092915050565b600082601f830112613f7357600080fd5b8135613f83848260208601613e7c565b91505092915050565b600081359050613f9b81615787565b92915050565b600081519050613fb081615787565b92915050565b600060208284031215613fc857600080fd5b6000613fd684828501613eba565b91505092915050565b600060208284031215613ff157600080fd5b6000613fff84828501613ecf565b91505092915050565b6000806040838503121561401b57600080fd5b600061402985828601613eba565b925050602061403a85828601613eba565b9150509250929050565b60008060006060848603121561405957600080fd5b600061406786828701613eba565b935050602061407886828701613eba565b925050604061408986828701613f8c565b9150509250925092565b600080600080608085870312156140a957600080fd5b60006140b787828801613eba565b94505060206140c887828801613eba565b93505060406140d987828801613f8c565b925050606085013567ffffffffffffffff8111156140f657600080fd5b61410287828801613f38565b91505092959194509250565b6000806040838503121561412157600080fd5b600061412f85828601613eba565b925050602061414085828601613ee4565b9150509250929050565b6000806040838503121561415d57600080fd5b600061416b85828601613eba565b925050602061417c85828601613f8c565b9150509250929050565b60006020828403121561419857600080fd5b60006141a684828501613ef9565b91505092915050565b6000602082840312156141c157600080fd5b60006141cf84828501613f0e565b91505092915050565b6000602082840312156141ea57600080fd5b60006141f884828501613f23565b91505092915050565b60006020828403121561421357600080fd5b600082013567ffffffffffffffff81111561422d57600080fd5b61423984828501613f62565b91505092915050565b60006020828403121561425457600080fd5b600061426284828501613f8c565b91505092915050565b60006020828403121561427d57600080fd5b600061428b84828501613fa1565b91505092915050565b600080604083850312156142a757600080fd5b60006142b585828601613f8c565b92505060206142c685828601613f8c565b9150509250929050565b6142d9816154c3565b82525050565b6142e8816154e7565b82525050565b60006142f982615357565b614303818561536d565b9350614313818560208601615575565b61431c8161571a565b840191505092915050565b600061433282615362565b61433c818561537e565b935061434c818560208601615575565b6143558161571a565b840191505092915050565b600061436b82615362565b614375818561538f565b9350614385818560208601615575565b80840191505092915050565b600061439e602b8361537e565b91507f455243373231456e756d657261626c653a206f776e657220696e646578206f7560008301527f74206f6620626f756e64730000000000000000000000000000000000000000006020830152604082019050919050565b600061440460328361537e565b91507f4552433732313a207472616e7366657220746f206e6f6e20455243373231526560008301527f63656976657220696d706c656d656e74657200000000000000000000000000006020830152604082019050919050565b600061446a60268361537e565b91507f4f776e61626c653a206e6577206f776e657220697320746865207a65726f206160008301527f64647265737300000000000000000000000000000000000000000000000000006020830152604082019050919050565b60006144d060168361537e565b91507f7769746864726f7720617070726f7665206572726f72000000000000000000006000830152602082019050919050565b6000614510601c8361537e565b91507f4552433732313a20746f6b656e20616c7265616479206d696e746564000000006000830152602082019050919050565b600061455060108361537e565b91507f746f6b656e206f776e6572206661696c000000000000000000000000000000006000830152602082019050919050565b6000614590601a8361537e565b91507f747261696e696e6720636f756e74206973206c696d697465642e0000000000006000830152602082019050919050565b60006145d060108361537e565b91507f7061636b207072696365206572726f72000000000000000000000000000000006000830152602082019050919050565b600061461060248361537e565b91507f4552433732313a207472616e7366657220746f20746865207a65726f2061646460008301527f72657373000000000000000000000000000000000000000000000000000000006020830152604082019050919050565b600061467660198361537e565b91507f4552433732313a20617070726f766520746f2063616c6c6572000000000000006000830152602082019050919050565b60006146b6602c8361537e565b91507f4552433732313a206f70657261746f7220717565727920666f72206e6f6e657860008301527f697374656e7420746f6b656e00000000000000000000000000000000000000006020830152604082019050919050565b600061471c60388361537e565b91507f4552433732313a20617070726f76652063616c6c6572206973206e6f74206f7760008301527f6e6572206e6f7220617070726f76656420666f7220616c6c00000000000000006020830152604082019050919050565b6000614782602a8361537e565b91507f4552433732313a2062616c616e636520717565727920666f7220746865207a6560008301527f726f2061646472657373000000000000000000000000000000000000000000006020830152604082019050919050565b60006147e860298361537e565b91507f4552433732313a206f776e657220717565727920666f72206e6f6e657869737460008301527f656e7420746f6b656e00000000000000000000000000000000000000000000006020830152604082019050919050565b600061484e60148361537e565b91507f617661696c61626c652074696d65206572726f720000000000000000000000006000830152602082019050919050565b600061488e60208361537e565b91507f4552433732313a206d696e7420746f20746865207a65726f20616464726573736000830152602082019050919050565b60006148ce602c8361537e565b91507f4552433732313a20617070726f76656420717565727920666f72206e6f6e657860008301527f697374656e7420746f6b656e00000000000000000000000000000000000000006020830152604082019050919050565b600061493460208361537e565b91507f4f776e61626c653a2063616c6c6572206973206e6f7420746865206f776e65726000830152602082019050919050565b600061497460298361537e565b91507f4552433732313a207472616e73666572206f6620746f6b656e2074686174206960008301527f73206e6f74206f776e00000000000000000000000000000000000000000000006020830152604082019050919050565b60006149da602f8361537e565b91507f4552433732314d657461646174613a2055524920717565727920666f72206e6f60008301527f6e6578697374656e7420746f6b656e00000000000000000000000000000000006020830152604082019050919050565b6000614a40601a8361537e565b91507f686173206e6f20656e6f75676820747261696e696e67206665650000000000006000830152602082019050919050565b6000614a80600e8361537e565b91507f6d696e74204e4654206572726f720000000000000000000000000000000000006000830152602082019050919050565b6000614ac0601c8361537e565b91507f45786365656473206d6178696d756d20696e697469616c207061636b000000006000830152602082019050919050565b6000614b0060218361537e565b91507f4552433732313a20617070726f76616c20746f2063757272656e74206f776e6560008301527f72000000000000000000000000000000000000000000000000000000000000006020830152604082019050919050565b6000614b6660318361537e565b91507f4552433732313a207472616e736665722063616c6c6572206973206e6f74206f60008301527f776e6572206e6f7220617070726f7665640000000000000000000000000000006020830152604082019050919050565b6000614bcc600f8361537e565b91507f707269636520696e636f727265637400000000000000000000000000000000006000830152602082019050919050565b6000614c0c602c8361537e565b91507f455243373231456e756d657261626c653a20676c6f62616c20696e646578206f60008301527f7574206f6620626f756e647300000000000000000000000000000000000000006020830152604082019050919050565b6000614c7260188361537e565b91507f6d696e7420746f20746865207a65726f206164647265737300000000000000006000830152602082019050919050565b6000614cb260148361537e565b91507f45786365656473206d6178696d756d207061636b0000000000000000000000006000830152602082019050919050565b614cee8161553f565b82525050565b614d05614d008261553f565b615623565b82525050565b614d1481615549565b82525050565b614d2381615559565b82525050565b6000614d358285614360565b9150614d418284614360565b91508190509392505050565b6000614d598284614cf4565b60208201915081905092915050565b6000602082019050614d7d60008301846142d0565b92915050565b6000606082019050614d9860008301866142d0565b614da560208301856142d0565b614db26040830184614ce5565b949350505050565b6000608082019050614dcf60008301876142d0565b614ddc60208301866142d0565b614de96040830185614ce5565b8181036060830152614dfb81846142ee565b905095945050505050565b6000604082019050614e1b60008301856142d0565b614e286020830184614ce5565b9392505050565b6000602082019050614e4460008301846142df565b92915050565b60006020820190508181036000830152614e648184614327565b905092915050565b600060e0820190508181036000830152614e86818a614327565b9050614e956020830189614d1a565b614ea26040830188614d1a565b614eaf6060830187614d1a565b614ebc6080830186614d0b565b614ec960a0830185614d0b565b614ed660c0830184614d0b565b98975050505050505050565b60006020820190508181036000830152614efb81614391565b9050919050565b60006020820190508181036000830152614f1b816143f7565b9050919050565b60006020820190508181036000830152614f3b8161445d565b9050919050565b60006020820190508181036000830152614f5b816144c3565b9050919050565b60006020820190508181036000830152614f7b81614503565b9050919050565b60006020820190508181036000830152614f9b81614543565b9050919050565b60006020820190508181036000830152614fbb81614583565b9050919050565b60006020820190508181036000830152614fdb816145c3565b9050919050565b60006020820190508181036000830152614ffb81614603565b9050919050565b6000602082019050818103600083015261501b81614669565b9050919050565b6000602082019050818103600083015261503b816146a9565b9050919050565b6000602082019050818103600083015261505b8161470f565b9050919050565b6000602082019050818103600083015261507b81614775565b9050919050565b6000602082019050818103600083015261509b816147db565b9050919050565b600060208201905081810360008301526150bb81614841565b9050919050565b600060208201905081810360008301526150db81614881565b9050919050565b600060208201905081810360008301526150fb816148c1565b9050919050565b6000602082019050818103600083015261511b81614927565b9050919050565b6000602082019050818103600083015261513b81614967565b9050919050565b6000602082019050818103600083015261515b816149cd565b9050919050565b6000602082019050818103600083015261517b81614a33565b9050919050565b6000602082019050818103600083015261519b81614a73565b9050919050565b600060208201905081810360008301526151bb81614ab3565b9050919050565b600060208201905081810360008301526151db81614af3565b9050919050565b600060208201905081810360008301526151fb81614b59565b9050919050565b6000602082019050818103600083015261521b81614bbf565b9050919050565b6000602082019050818103600083015261523b81614bff565b9050919050565b6000602082019050818103600083015261525b81614c65565b9050919050565b6000602082019050818103600083015261527b81614ca5565b9050919050565b60006020820190506152976000830184614ce5565b92915050565b60006040820190506152b26000830185614ce5565b6152bf6020830184614ce5565b9392505050565b6000604051905081810181811067ffffffffffffffff821117156152ed576152ec6156eb565b5b8060405250919050565b600067ffffffffffffffff821115615312576153116156eb565b5b601f19601f8301169050602081019050919050565b600067ffffffffffffffff821115615342576153416156eb565b5b601f19601f8301169050602081019050919050565b600081519050919050565b600081519050919050565b600082825260208201905092915050565b600082825260208201905092915050565b600081905092915050565b60006153a58261553f565b91506153b08361553f565b9250827fffffffffffffffffffffffffffffffffffffffffffffffffffffffffffffffff038211156153e5576153e461565e565b5b828201905092915050565b60006153fb82615549565b915061540683615549565b92508263ffffffff0382111561541f5761541e61565e565b5b828201905092915050565b60006154358261553f565b91506154408361553f565b9250826154505761544f61568d565b5b828204905092915050565b60006154668261553f565b91506154718361553f565b9250828210156154845761548361565e565b5b828203905092915050565b600061549a82615559565b91506154a583615559565b9250828210156154b8576154b761565e565b5b828203905092915050565b60006154ce8261551f565b9050919050565b60006154e08261551f565b9050919050565b60008115159050919050565b60007fffffffff0000000000000000000000000000000000000000000000000000000082169050919050565b600073ffffffffffffffffffffffffffffffffffffffff82169050919050565b6000819050919050565b600063ffffffff82169050919050565b600060ff82169050919050565b82818337600083830152505050565b60005b83811015615593578082015181840152602081019050615578565b838111156155a2576000848401525b50505050565b600060028204905060018216806155c057607f821691505b602082108114156155d4576155d36156bc565b5b50919050565b60006155e58261553f565b91507fffffffffffffffffffffffffffffffffffffffffffffffffffffffffffffffff8214156156185761561761565e565b5b600182019050919050565b6000819050919050565b60006156388261553f565b91506156438361553f565b9250826156535761565261568d565b5b828206905092915050565b7f4e487b7100000000000000000000000000000000000000000000000000000000600052601160045260246000fd5b7f4e487b7100000000000000000000000000000000000000000000000000000000600052601260045260246000fd5b7f4e487b7100000000000000000000000000000000000000000000000000000000600052602260045260246000fd5b7f4e487b7100000000000000000000000000000000000000000000000000000000600052604160045260246000fd5b6000601f19601f8301169050919050565b615734816154c3565b811461573f57600080fd5b50565b61574b816154d5565b811461575657600080fd5b50565b615762816154e7565b811461576d57600080fd5b50565b615779816154f3565b811461578457600080fd5b50565b6157908161553f565b811461579b57600080fd5b5056fea264697066735822122047125f62ee7483e4d460338a459ed2360b1db1448f25a4e0a242adfe59a8667864736f6c63430008000033",
  "immutableReferences": {},
  "source": "// SPDX-License-Identifier: MIT\r\npragma solidity ^0.8.0;\r\n\r\nimport \"@openzeppelin/contracts/token/ERC721/extensions/ERC721Enumerable.sol\";\r\nimport \"@openzeppelin/contracts/access/Ownable.sol\";\r\nimport \"./Darknft_factory.sol\";\r\n\r\ninterface IBEP20 {\r\n\r\n    function totalSupply() external view returns (uint256);\r\n    function balanceOf(address account) external view returns (uint256);\r\n    function transfer(address recipient, uint256 amount) external returns (bool);\r\n    function allowance(address owner, address spender) external view returns (uint256);\r\n    function approve(address spender, uint256 amount) external returns (bool);\r\n    function transferFrom(address sender, address recipient, uint256 amount) external returns (bool);\r\n    event Transfer(address indexed from, address indexed to, uint256 value);\r\n    event Approval(address indexed owner, address indexed spender, uint256 value);\r\n}\r\n\r\ncontract DARKNFT is DARKNFT_Factory, ERC721Enumerable, Ownable  {\r\n    //using Strings for uint256;\r\n\r\n    string private _baseTokenURI;\r\n    uint256 private _limit_pack = 20000;\r\n    uint256 private _saled_pack;\r\n    uint256 private _price_bnb = 0.1 ether;\r\n    uint256 private _price_darkso = 2000*10**6;\r\n    uint256 private _training_fee = 0.05 ether;\r\n    \r\n\r\n    IBEP20 private DARKSOToken;\r\n\r\n    constructor(string memory baseURI) ERC721(\"Hero and disciple\", \"COOL\") {\r\n        setBaseURI(baseURI);\r\n        dark_tokens.push(TokenRecord(\"Nox\", 1, 3, 4, 140, 178, uint32(block.timestamp)));\r\n        dark_tokens.push(TokenRecord(\"Nox\", 1, 3, 4, 140, 177, uint32(block.timestamp)));\r\n        \r\n        _safeMint(msg.sender, 0);//token ID ???????????? 0..100??\r\n\r\n        _safeMint(msg.sender, 1);\r\n        _saled_pack = 2;\r\n\r\n        address darkso = 0x6407E501a017eCF9Ea94232876cD08E7CFF5A0aE;\r\n\r\n\r\n        DARKSOToken = IBEP20(darkso);\r\n\r\n    }\r\n\r\n    function mint_pack_withBnb() public payable {\r\n\r\n        require(\r\n            _saled_pack + 1 < _limit_pack, // keeping the total supply of initial pack\r\n            \"Exceeds maximum pack\" // less than 20,000\r\n        );\r\n        // msg.value = how many eth you send to this contract's function\r\n        // proper amount of eth have been sent or not\r\n        require(msg.value >= _price_bnb,\"price incorrect\");\r\n\r\n        uint256 tokenId = totalSupply();\r\n        \r\n        require( _MintDARKToken(false) == true, \"mint NFT error\");\r\n        _safeMint(msg.sender, tokenId);\r\n        \r\n        _saled_pack = _saled_pack + 1;\r\n    }\r\n\r\n    function mint_pack_withToken() public {\r\n        require(\r\n            _saled_pack + 1 < _limit_pack, // keeping the total supply of initial pack\r\n            \"Exceeds maximum initial pack\" // less than 20,000\r\n        );\r\n        \r\n        // proper amount of eth have been sent or not\r\n        require(\r\n            DARKSOToken.balanceOf(msg.sender) >= _price_darkso,\r\n            \"pack price error\"\r\n        );\r\n        DARKSOToken.transfer(address(this),_price_darkso);\r\n\r\n        uint256 tokenId = totalSupply();\r\n\r\n        require( _MintDARKToken(false) == true, \"mint NFT error\");\r\n\r\n        _safeMint(msg.sender, tokenId);\r\n        _saled_pack = _saled_pack + 1;\r\n    }\r\n    function getBalance() public view returns(uint256){\r\n\r\n        return DARKSOToken.balanceOf(msg.sender);\r\n    }\r\n\r\n    function TrainingDARK(uint tokenID_1, uint tokenID_2) public payable{\r\n\r\n        require(msg.sender != address(0), \"mint to the zero address\");\r\n\r\n        require(msg.value >= _training_fee, \"has no enough training fee\");\r\n\r\n        require(ownerOf(tokenID_1) == msg.sender, \"token owner fail\");     \r\n        require(ownerOf(tokenID_2) == msg.sender, \"token owner fail\");        \r\n       \r\n        require(dark_tokens[tokenID_1].training >= 1, \"training count is limited.\");\r\n        require(dark_tokens[tokenID_2].training >= 1, \"training count is limited.\");\r\n\r\n        require(dark_tokens[tokenID_1].readyTime < block.timestamp, \"available time error\");\r\n\r\n        require(dark_tokens[tokenID_2].readyTime < block.timestamp, \"available time error\");\r\n\r\n        uint256 tokenId = totalSupply();\r\n\r\n        require( _MintDARKToken(true) == true, \"mint NFT error\");\r\n\r\n        _safeMint(msg.sender, tokenId);\r\n        \r\n        dark_tokens[tokenID_1].training = dark_tokens[tokenID_1].training - 1;\r\n        dark_tokens[tokenID_2].training = dark_tokens[tokenID_2].training - 1;\r\n\r\n    }\r\n\r\n    function getTokenData(uint tokenID)public view returns(string memory, uint8, uint8, uint8, uint32, uint32, uint32){\r\n        require(msg.sender != address(0), \"mint to the zero address\");\r\n        \r\n        require(ownerOf(tokenID) == msg.sender, \"token owner fail\");\r\n\r\n        TokenRecord memory dark = dark_tokens[tokenID];\r\n        return (dark.name,dark.token_type,dark.rarity, dark.training, dark.strength, dark.defense, dark.readyTime);\r\n    }\r\n\r\n    \r\n    function _baseURI() internal view override returns (string memory) {\r\n        return _baseTokenURI;\r\n    }\r\n\r\n    function setBaseURI(string memory baseURI) public onlyOwner {\r\n        _baseTokenURI = baseURI;\r\n    }\r\n\r\n    function restart_pack(uint256 _pack_amount) public onlyOwner{\r\n        _limit_pack = _pack_amount;\r\n        _saled_pack = 0; \r\n    }\r\n    function get_pack_info() public view returns (uint256, uint256) {\r\n        return (_limit_pack, _saled_pack);\r\n    }\r\n\r\n    function withdrawNative(address payable recipient) external onlyOwner {\r\n    \r\n        recipient.transfer(address(this).balance);                \r\n    }\r\n    function get_NativeAmount() public view onlyOwner returns (uint256){\r\n        return address(this).balance;\r\n    } \r\n\r\n    function set_darkso_address(address darkso) external onlyOwner returns(bool){\r\n        DARKSOToken = IBEP20(darkso);        \r\n        return true;\r\n    }\r\n\r\n    function withdrawToken(address recipient) external onlyOwner {\r\n        uint amount = DARKSOToken.balanceOf(address(this));\r\n        require( DARKSOToken.approve((recipient), amount) == true, \"withdrow approve error\");\r\n        DARKSOToken.transferFrom(address(this), recipient, amount);\r\n    }\r\n\r\n}\r\n",
  "sourcePath": "D:\\working\\blockchain\\binance\\DARKNFT\\contracts\\Darknft.sol",
  "compiler": {
    "name": "solc",
    "version": "0.8.0+commit.c7dfd78e.Emscripten.clang"
  },
  "schemaVersion": "3.4.3",
  "updatedAt": "2021-11-01T16:30:41.898Z",
  "devdoc": {
    "kind": "dev",
    "methods": {
      "approve(address,uint256)": {
        "details": "See {IERC721-approve}."
      },
      "balanceOf(address)": {
        "details": "See {IERC721-balanceOf}."
      },
      "getApproved(uint256)": {
        "details": "See {IERC721-getApproved}."
      },
      "isApprovedForAll(address,address)": {
        "details": "See {IERC721-isApprovedForAll}."
      },
      "name()": {
        "details": "See {IERC721Metadata-name}."
      },
      "owner()": {
        "details": "Returns the address of the current owner."
      },
      "ownerOf(uint256)": {
        "details": "See {IERC721-ownerOf}."
      },
      "renounceOwnership()": {
        "details": "Leaves the contract without owner. It will not be possible to call `onlyOwner` functions anymore. Can only be called by the current owner. NOTE: Renouncing ownership will leave the contract without an owner, thereby removing any functionality that is only available to the owner."
      },
      "safeTransferFrom(address,address,uint256)": {
        "details": "See {IERC721-safeTransferFrom}."
      },
      "safeTransferFrom(address,address,uint256,bytes)": {
        "details": "See {IERC721-safeTransferFrom}."
      },
      "setApprovalForAll(address,bool)": {
        "details": "See {IERC721-setApprovalForAll}."
      },
      "supportsInterface(bytes4)": {
        "details": "See {IERC165-supportsInterface}."
      },
      "symbol()": {
        "details": "See {IERC721Metadata-symbol}."
      },
      "tokenByIndex(uint256)": {
        "details": "See {IERC721Enumerable-tokenByIndex}."
      },
      "tokenOfOwnerByIndex(address,uint256)": {
        "details": "See {IERC721Enumerable-tokenOfOwnerByIndex}."
      },
      "tokenURI(uint256)": {
        "details": "See {IERC721Metadata-tokenURI}."
      },
      "totalSupply()": {
        "details": "See {IERC721Enumerable-totalSupply}."
      },
      "transferFrom(address,address,uint256)": {
        "details": "See {IERC721-transferFrom}."
      },
      "transferOwnership(address)": {
        "details": "Transfers ownership of the contract to a new account (`newOwner`). Can only be called by the current owner."
      }
    },
    "version": 1
  },
  "userdoc": {
    "kind": "user",
    "methods": {},
    "version": 1
  }
}