{
  "contractName": "DARKNFT_Factory",
  "abi": [
    {
      "inputs": [
        {
          "internalType": "uint256",
          "name": "",
          "type": "uint256"
        }
      ],
      "name": "dark_tokens",
      "outputs": [
        {
          "internalType": "string",
          "name": "name",
          "type": "string"
        },
        {
          "internalType": "uint8",
          "name": "token_type",
          "type": "uint8"
        },
        {
          "internalType": "uint8",
          "name": "rarity",
          "type": "uint8"
        },
        {
          "internalType": "uint8",
          "name": "training",
          "type": "uint8"
        },
        {
          "internalType": "uint32",
          "name": "strength",
          "type": "uint32"
        },
        {
          "internalType": "uint32",
          "name": "defense",
          "type": "uint32"
        },
        {
          "internalType": "uint32",
          "name": "readyTime",
          "type": "uint32"
        }
      ],
      "stateMutability": "view",
      "type": "function"
    }
  ],
  "bytecode": "0x608060405234801561001057600080fd5b506103d7806100206000396000f3fe608060405234801561001057600080fd5b506004361061002b5760003560e01c8063ab0034e614610030575b600080fd5b61004a600480360381019061004591906101ac565b610066565b60405161005d979695949392919061022c565b60405180910390f35b6000818154811061007657600080fd5b906000526020600020906002020160009150905080600001805461009990610318565b80601f01602080910402602001604051908101604052809291908181526020018280546100c590610318565b80156101125780601f106100e757610100808354040283529160200191610112565b820191906000526020600020905b8154815290600101906020018083116100f557829003601f168201915b5050505050908060010160009054906101000a900460ff16908060010160019054906101000a900460ff16908060010160029054906101000a900460ff16908060010160039054906101000a900463ffffffff16908060010160079054906101000a900463ffffffff169080600101600b9054906101000a900463ffffffff16905087565b6000813590506101a68161038a565b92915050565b6000602082840312156101be57600080fd5b60006101cc84828501610197565b91505092915050565b60006101e0826102a2565b6101ea81856102ad565b93506101fa8185602086016102e5565b61020381610379565b840191505092915050565b610217816102c8565b82525050565b610226816102d8565b82525050565b600060e0820190508181036000830152610246818a6101d5565b9050610255602083018961021d565b610262604083018861021d565b61026f606083018761021d565b61027c608083018661020e565b61028960a083018561020e565b61029660c083018461020e565b98975050505050505050565b600081519050919050565b600082825260208201905092915050565b6000819050919050565b600063ffffffff82169050919050565b600060ff82169050919050565b60005b838110156103035780820151818401526020810190506102e8565b83811115610312576000848401525b50505050565b6000600282049050600182168061033057607f821691505b602082108114156103445761034361034a565b5b50919050565b7f4e487b7100000000000000000000000000000000000000000000000000000000600052602260045260246000fd5b6000601f19601f8301169050919050565b610393816102be565b811461039e57600080fd5b5056fea264697066735822122041635a2895c2201d10ef856f1f0c22d4091ec1d69d46790bde26d3778c68551564736f6c63430008000033",
  "immutableReferences": {},
  "source": "// SPDX-License-Identifier: MIT\r\npragma solidity ^0.8.0;\r\n\r\ncontract DARKNFT_Factory{\r\n    //using Strings for uint256;\r\n\r\n    struct TokenRecord{        \r\n        string name;\r\n\r\n        uint8 token_type; //1 : hero, 2 discipline\r\n        \r\n        uint8 rarity; //1: common, 2: Rare, 3: legendary\r\n        \r\n        uint8 training;\r\n        \r\n        uint32 strength;\r\n        \r\n        uint32 defense;\r\n\r\n        uint32 readyTime;\r\n    }\r\n\r\n    TokenRecord[] public dark_tokens;\r\n\r\n    //event TrainingDARKToken(uint tokenId);\r\n    //event NewDARKToken(uint tokenID, string name, uint token_type, uint tarity, uint training, uint strength,uint defense); \r\n\r\n    function _generateRandom(uint8 dnaModulus) internal view returns (uint8) {\r\n        \r\n        uint rand = uint(keccak256(abi.encodePacked(block.timestamp)));\r\n        return uint8(rand % dnaModulus);\r\n    }\r\n\r\n    function _MintDARKToken(bool isTraining) internal returns(bool){\r\n        uint8 randType = uint8(_generateRandom(100));\r\n\r\n        uint8 training;\r\n        uint32 randStrength;\r\n        uint32 randDefense;\r\n        uint8 randName;\r\n        uint8 randRarity;\r\n        string memory name;\r\n\r\n        uint range = 75;\r\n\r\n        uint downTime;\r\n        if(isTraining){\r\n            downTime = 1 days;\r\n            range = 80;\r\n        }\r\n\r\n        randName = uint8(_generateRandom(2));\r\n\r\n        if(randType >= range){\r\n            if (randType < 95){\r\n                randRarity = 2; //Rare\r\n                if(randName == 1){\r\n                    name = \"Sarah\";\r\n                }else{\r\n                    name = \"Kaylan\";\r\n                }\r\n                training = 2;\r\n            }else{\r\n                randRarity = 3; //Legendary\r\n                if(randName == 1){\r\n                    name = \"Valkyria\";\r\n                }else{\r\n                    name = \"Nox\";\r\n                }\r\n                training = 4;\r\n            }\r\n\r\n            randType = 1; //hero\r\n\r\n            if(randRarity == 2){\r\n\r\n                randStrength = _generateRandom(21);\r\n                randStrength = randStrength + 100;\r\n                randDefense = _generateRandom(21);\r\n                randDefense = randDefense + 100;\r\n            }else{\r\n\r\n                randStrength = _generateRandom(41);\r\n                randStrength = randStrength + 140;\r\n                randDefense = _generateRandom(41);\r\n                randDefense = randDefense + 140;                \r\n            }\r\n\r\n        }else{\r\n            randType = 2; //disciple\r\n            randRarity = 1;\r\n\r\n            if(randName == 1){\r\n                name = \"Aurora\";\r\n            }else{\r\n                name = \"Bert\";\r\n            }\r\n\r\n            randStrength = _generateRandom(21);\r\n            randStrength = randStrength + 80;\r\n            randDefense = _generateRandom(21);\r\n            randDefense = randDefense + 80;\r\n        }\r\n\r\n\r\n\r\n        dark_tokens.push(TokenRecord(name, randType, randRarity, training, randStrength, randDefense, uint32(block.timestamp + downTime)));\r\n        return true;\r\n        //require(_tokenID == id, \"tokenCount error\");\r\n        // if(isTraining){\r\n\r\n        //     emit TrainingDARKToken(_tokenID);\r\n        // }else{\r\n        //     emit NewDARKToken(_tokenID, name, randType, randRarity, training, randStrength, randDefense);\r\n        // }    \r\n    }\r\n\r\n}\r\n",
  "sourcePath": "D:\\working\\blockchain\\binance\\DARKNFT\\contracts\\Darknft_factory.sol",
  "compiler": {
    "name": "solc",
    "version": "0.8.0+commit.c7dfd78e.Emscripten.clang"
  },
  "schemaVersion": "3.4.3",
  "updatedAt": "2021-11-01T16:30:42.119Z",
  "devdoc": {
    "kind": "dev",
    "methods": {},
    "version": 1
  },
  "userdoc": {
    "kind": "user",
    "methods": {},
    "version": 1
  }
}